:100000000C9434000C943E000C943E000C943E0082
:100010000C943E000C943E000C943E000C943E0068
:100020000C943E000C943E000C943E000C943E0058
:100030000C943E000C943E000C943E000C943E0048
:100040000C943E000C943E000C943E000C943E0038
:100050000C943E000C943E000C943E000C943E0028
:100060000C943E000C943E0011241FBECFEFD8E04C
:10007000DEBFCDBF0E94FC000C94B7010C940000C1
:10008000579A5198599A54985C9A089580E48093AD
:100090007C0087E880937A00089590917C00987F97
:1000A00090937C0090917C008770892B80937C00DA
:1000B00080917A00806480937A0080917A0084FF36
:1000C000FCCF80917A00806180937A002091780043
:1000D00030917900C9010895E0E8F0E080818368FB
:1000E0008083E1E8F0E080818A608083219A08952E
:1000F0009C01823D9105A0F48DEC90E090938900E5
:100100008093880020E030E040E951E0CA01019787
:10011000F1F72F5F3F4F283C3105C1F784E1089587
:10012000825D90408C529140A0F48AE991E09093D6
:1001300089008093880020E030E040E951E0CA0166
:100140000197F1F72F5F3F4F283C3105C1F789E157
:100150000895C9018E5F9140883C9105A0F48DEC13
:1001600092E0909389008093880020E030E040E99D
:1001700051E0CA010197F1F72F5F3F4F283C31054D
:10018000C1F78DE10895265C32402B533140A0F435
:100190008DEC93E0909389008093880020E030E01C
:1001A00040E951E0CA010197F1F72F5F3F4F283C2A
:1001B0003105C1F781E208951092890010928800FC
:1001C00080E008958093C4009093C50084E48093F8
:1001D000C20088ED8093C10008958091C00087FF20
:1001E000FCCF8091C6000895982F8091C00085FFB4
:1001F000FCCF9093C60008951F93CF93DF930E9486
:10020000400080E480937C0087E880937A000E941D
:100210006C0087E68093C4001092C50084E480934C
:10022000C20088ED8093C10040E951E06DEC73E0BD
:10023000EDECF2E0AAE9B1E0CDECD0E04C9942C09F
:10024000499940C05F9A20E030E0CA010197F1F778
:100250002F5F3F4F17E0203D3107B9F780917C00B9
:10026000887F80937C0080917C0080937C008091CB
:100270007A00806480937A0080917A0084FFFCCFBA
:1002800080917A00806180937A002091780030918B
:100290007900223D3105C0F4D0938900C0938800D5
:1002A00020E030E0CA010197F1F72F5F3F4F283C73
:1002B0003105C1F78091C00085FFFCCF1092C600C8
:1002C0004C9BBECF5F98BACFC901825D90408C52E3
:1002D000914098F4B0938900A093880020E030E02A
:1002E000CA010197F1F72F5F3F4F283C3105C1F755
:1002F0008091C00085FFDECFE1CFC9018E5F9140C4
:10030000883C910598F4F0938900E093880020E000
:1003100030E0CA010197F1F72F5F3F4F283C3105CC
:10032000C1F78091C00085FFC5CFC8CF265C3240A1
:100330002B53314098F4709389006093880020E03B
:1003400030E0CA010197F1F72F5F3F4F283C31059C
:10035000C1F78091C00085FFADCFB0CF109289006A
:10036000109288008091C00085FFA4CFA7CFF89499
:02037000FFCFBD
:00000001FF
